{
  "_format": "hh-sol-artifact-1",
  "contractName": "GNFT",
  "sourceName": "contracts/GNFT.sol",
  "abi": [
    {
      "inputs": [],
      "stateMutability": "nonpayable",
      "type": "constructor"
    },
    {
      "inputs": [],
      "name": "GNFT__MintingIsPaused",
      "type": "error"
    },
    {
      "inputs": [],
      "name": "GNFT__NftToMintLowerThanOne",
      "type": "error"
    },
    {
      "inputs": [
        {
          "internalType": "uint256",
          "name": "neededFunds",
          "type": "uint256"
        }
      ],
      "name": "GNFT__NotEnoughFunds",
      "type": "error"
    },
    {
      "inputs": [],
      "name": "GNFT__TransactionNotSent",
      "type": "error"
    },
    {
      "anonymous": false,
      "inputs": [
        {
          "indexed": true,
          "internalType": "address",
          "name": "owner",
          "type": "address"
        },
        {
          "indexed": true,
          "internalType": "address",
          "name": "approved",
          "type": "address"
        },
        {
          "indexed": true,
          "internalType": "uint256",
          "name": "tokenId",
          "type": "uint256"
        }
      ],
      "name": "Approval",
      "type": "event"
    },
    {
      "anonymous": false,
      "inputs": [
        {
          "indexed": true,
          "internalType": "address",
          "name": "owner",
          "type": "address"
        },
        {
          "indexed": true,
          "internalType": "address",
          "name": "operator",
          "type": "address"
        },
        {
          "indexed": false,
          "internalType": "bool",
          "name": "approved",
          "type": "bool"
        }
      ],
      "name": "ApprovalForAll",
      "type": "event"
    },
    {
      "anonymous": false,
      "inputs": [
        {
          "indexed": true,
          "internalType": "address",
          "name": "previousOwner",
          "type": "address"
        },
        {
          "indexed": true,
          "internalType": "address",
          "name": "newOwner",
          "type": "address"
        }
      ],
      "name": "OwnershipTransferred",
      "type": "event"
    },
    {
      "anonymous": false,
      "inputs": [
        {
          "indexed": true,
          "internalType": "address",
          "name": "from",
          "type": "address"
        },
        {
          "indexed": true,
          "internalType": "address",
          "name": "to",
          "type": "address"
        },
        {
          "indexed": true,
          "internalType": "uint256",
          "name": "tokenId",
          "type": "uint256"
        }
      ],
      "name": "Transfer",
      "type": "event"
    },
    {
      "inputs": [],
      "name": "_tokenId",
      "outputs": [
        {
          "internalType": "uint256",
          "name": "",
          "type": "uint256"
        }
      ],
      "stateMutability": "view",
      "type": "function"
    },
    {
      "inputs": [
        {
          "internalType": "address",
          "name": "to",
          "type": "address"
        },
        {
          "internalType": "uint256",
          "name": "tokenId",
          "type": "uint256"
        }
      ],
      "name": "approve",
      "outputs": [],
      "stateMutability": "nonpayable",
      "type": "function"
    },
    {
      "inputs": [
        {
          "internalType": "address",
          "name": "owner",
          "type": "address"
        }
      ],
      "name": "balanceOf",
      "outputs": [
        {
          "internalType": "uint256",
          "name": "",
          "type": "uint256"
        }
      ],
      "stateMutability": "view",
      "type": "function"
    },
    {
      "inputs": [],
      "name": "fee",
      "outputs": [
        {
          "internalType": "uint256",
          "name": "",
          "type": "uint256"
        }
      ],
      "stateMutability": "view",
      "type": "function"
    },
    {
      "inputs": [
        {
          "internalType": "uint256",
          "name": "tokenId",
          "type": "uint256"
        }
      ],
      "name": "getApproved",
      "outputs": [
        {
          "internalType": "address",
          "name": "",
          "type": "address"
        }
      ],
      "stateMutability": "view",
      "type": "function"
    },
    {
      "inputs": [
        {
          "internalType": "address",
          "name": "owner",
          "type": "address"
        },
        {
          "internalType": "address",
          "name": "operator",
          "type": "address"
        }
      ],
      "name": "isApprovedForAll",
      "outputs": [
        {
          "internalType": "bool",
          "name": "",
          "type": "bool"
        }
      ],
      "stateMutability": "view",
      "type": "function"
    },
    {
      "inputs": [
        {
          "internalType": "address",
          "name": "_to",
          "type": "address"
        },
        {
          "internalType": "string",
          "name": "_baseUri",
          "type": "string"
        },
        {
          "internalType": "string[]",
          "name": "_fileNames",
          "type": "string[]"
        }
      ],
      "name": "mint",
      "outputs": [],
      "stateMutability": "payable",
      "type": "function"
    },
    {
      "inputs": [],
      "name": "name",
      "outputs": [
        {
          "internalType": "string",
          "name": "",
          "type": "string"
        }
      ],
      "stateMutability": "view",
      "type": "function"
    },
    {
      "inputs": [],
      "name": "owner",
      "outputs": [
        {
          "internalType": "address",
          "name": "",
          "type": "address"
        }
      ],
      "stateMutability": "view",
      "type": "function"
    },
    {
      "inputs": [
        {
          "internalType": "uint256",
          "name": "tokenId",
          "type": "uint256"
        }
      ],
      "name": "ownerOf",
      "outputs": [
        {
          "internalType": "address",
          "name": "",
          "type": "address"
        }
      ],
      "stateMutability": "view",
      "type": "function"
    },
    {
      "inputs": [
        {
          "internalType": "bool",
          "name": "_state",
          "type": "bool"
        }
      ],
      "name": "pause",
      "outputs": [],
      "stateMutability": "nonpayable",
      "type": "function"
    },
    {
      "inputs": [],
      "name": "paused",
      "outputs": [
        {
          "internalType": "bool",
          "name": "",
          "type": "bool"
        }
      ],
      "stateMutability": "view",
      "type": "function"
    },
    {
      "inputs": [],
      "name": "renounceOwnership",
      "outputs": [],
      "stateMutability": "nonpayable",
      "type": "function"
    },
    {
      "inputs": [
        {
          "internalType": "address",
          "name": "from",
          "type": "address"
        },
        {
          "internalType": "address",
          "name": "to",
          "type": "address"
        },
        {
          "internalType": "uint256",
          "name": "tokenId",
          "type": "uint256"
        }
      ],
      "name": "safeTransferFrom",
      "outputs": [],
      "stateMutability": "nonpayable",
      "type": "function"
    },
    {
      "inputs": [
        {
          "internalType": "address",
          "name": "from",
          "type": "address"
        },
        {
          "internalType": "address",
          "name": "to",
          "type": "address"
        },
        {
          "internalType": "uint256",
          "name": "tokenId",
          "type": "uint256"
        },
        {
          "internalType": "bytes",
          "name": "data",
          "type": "bytes"
        }
      ],
      "name": "safeTransferFrom",
      "outputs": [],
      "stateMutability": "nonpayable",
      "type": "function"
    },
    {
      "inputs": [
        {
          "internalType": "address",
          "name": "operator",
          "type": "address"
        },
        {
          "internalType": "bool",
          "name": "approved",
          "type": "bool"
        }
      ],
      "name": "setApprovalForAll",
      "outputs": [],
      "stateMutability": "nonpayable",
      "type": "function"
    },
    {
      "inputs": [
        {
          "internalType": "uint256",
          "name": "_fee",
          "type": "uint256"
        }
      ],
      "name": "setFee",
      "outputs": [],
      "stateMutability": "nonpayable",
      "type": "function"
    },
    {
      "inputs": [
        {
          "internalType": "bytes4",
          "name": "interfaceId",
          "type": "bytes4"
        }
      ],
      "name": "supportsInterface",
      "outputs": [
        {
          "internalType": "bool",
          "name": "",
          "type": "bool"
        }
      ],
      "stateMutability": "view",
      "type": "function"
    },
    {
      "inputs": [],
      "name": "symbol",
      "outputs": [
        {
          "internalType": "string",
          "name": "",
          "type": "string"
        }
      ],
      "stateMutability": "view",
      "type": "function"
    },
    {
      "inputs": [
        {
          "internalType": "uint256",
          "name": "tokenId",
          "type": "uint256"
        }
      ],
      "name": "tokenURI",
      "outputs": [
        {
          "internalType": "string",
          "name": "",
          "type": "string"
        }
      ],
      "stateMutability": "view",
      "type": "function"
    },
    {
      "inputs": [
        {
          "internalType": "address",
          "name": "from",
          "type": "address"
        },
        {
          "internalType": "address",
          "name": "to",
          "type": "address"
        },
        {
          "internalType": "uint256",
          "name": "tokenId",
          "type": "uint256"
        }
      ],
      "name": "transferFrom",
      "outputs": [],
      "stateMutability": "nonpayable",
      "type": "function"
    },
    {
      "inputs": [
        {
          "internalType": "address",
          "name": "newOwner",
          "type": "address"
        }
      ],
      "name": "transferOwnership",
      "outputs": [],
      "stateMutability": "nonpayable",
      "type": "function"
    },
    {
      "inputs": [],
      "name": "withdraw",
      "outputs": [],
      "stateMutability": "nonpayable",
      "type": "function"
    }
  ],
  "bytecode": "0x60806040526000600a60006101000a81548160ff021916908315150217905550678ac7230489e80000600b553480156200003857600080fd5b506040518060400160405280601a81526020017f47656e65726174654e46542e636f6d20436f6c6c656374696f6e0000000000008152506040518060400160405280600481526020017f474e4654000000000000000000000000000000000000000000000000000000008152508160009080519060200190620000bd929190620001cd565b508060019080519060200190620000d6929190620001cd565b505050620000f9620000ed620000ff60201b60201c565b6200010760201b60201c565b620002e2565b600033905090565b6000600760009054906101000a900473ffffffffffffffffffffffffffffffffffffffff16905081600760006101000a81548173ffffffffffffffffffffffffffffffffffffffff021916908373ffffffffffffffffffffffffffffffffffffffff1602179055508173ffffffffffffffffffffffffffffffffffffffff168173ffffffffffffffffffffffffffffffffffffffff167f8be0079c531659141344cd1fd0a4f28419497f9722a3daafe3b4186f6b6457e060405160405180910390a35050565b828054620001db906200027d565b90600052602060002090601f016020900481019282620001ff57600085556200024b565b82601f106200021a57805160ff19168380011785556200024b565b828001600101855582156200024b579182015b828111156200024a5782518255916020019190600101906200022d565b5b5090506200025a91906200025e565b5090565b5b80821115620002795760008160009055506001016200025f565b5090565b600060028204905060018216806200029657607f821691505b60208210811415620002ad57620002ac620002b3565b5b50919050565b7f4e487b7100000000000000000000000000000000000000000000000000000000600052602260045260246000fd5b6133d180620002f26000396000f3fe6080604052600436106101405760003560e01c806363aba2f5116100b6578063a22cb4651161006f578063a22cb46514610427578063b88d4fde14610450578063c87b56dd14610479578063ddca3f43146104b6578063e985e9c5146104e1578063f2fde38b1461051e57610140565b806363aba2f51461033857806369fe0e2d1461035457806370a082311461037d578063715018a6146103ba5780638da5cb5b146103d157806395d89b41146103fc57610140565b806323b872dd1161010857806323b872dd1461023c57806324822514146102655780633ccfd60b1461029057806342842e0e146102a75780635c975abb146102d05780636352211e146102fb57610140565b806301ffc9a71461014557806302329a291461018257806306fdde03146101ab578063081812fc146101d6578063095ea7b314610213575b600080fd5b34801561015157600080fd5b5061016c600480360381019061016791906123fc565b610547565b6040516101799190612880565b60405180910390f35b34801561018e57600080fd5b506101a960048036038101906101a491906123cf565b610629565b005b3480156101b757600080fd5b506101c061064e565b6040516101cd919061289b565b60405180910390f35b3480156101e257600080fd5b506101fd60048036038101906101f89190612456565b6106e0565b60405161020a9190612819565b60405180910390f35b34801561021f57600080fd5b5061023a6004803603810190610235919061238f565b610726565b005b34801561024857600080fd5b50610263600480360381019061025e91906121ee565b61083e565b005b34801561027157600080fd5b5061027a61089e565b6040516102879190612a7d565b60405180910390f35b34801561029c57600080fd5b506102a56108a4565b005b3480156102b357600080fd5b506102ce60048036038101906102c991906121ee565b610965565b005b3480156102dc57600080fd5b506102e5610985565b6040516102f29190612880565b60405180910390f35b34801561030757600080fd5b50610322600480360381019061031d9190612456565b610998565b60405161032f9190612819565b60405180910390f35b610352600480360381019061034d9190612304565b610a4a565b005b34801561036057600080fd5b5061037b60048036038101906103769190612456565b610c06565b005b34801561038957600080fd5b506103a4600480360381019061039f9190612181565b610c18565b6040516103b19190612a7d565b60405180910390f35b3480156103c657600080fd5b506103cf610cd0565b005b3480156103dd57600080fd5b506103e6610ce4565b6040516103f39190612819565b60405180910390f35b34801561040857600080fd5b50610411610d0e565b60405161041e919061289b565b60405180910390f35b34801561043357600080fd5b5061044e600480360381019061044991906122c4565b610da0565b005b34801561045c57600080fd5b5061047760048036038101906104729190612241565b610db6565b005b34801561048557600080fd5b506104a0600480360381019061049b9190612456565b610e18565b6040516104ad919061289b565b60405180910390f35b3480156104c257600080fd5b506104cb610f2b565b6040516104d89190612a7d565b60405180910390f35b3480156104ed57600080fd5b50610508600480360381019061050391906121ae565b610f31565b6040516105159190612880565b60405180910390f35b34801561052a57600080fd5b5061054560048036038101906105409190612181565b610fc5565b005b60007f80ac58cd000000000000000000000000000000000000000000000000000000007bffffffffffffffffffffffffffffffffffffffffffffffffffffffff1916827bffffffffffffffffffffffffffffffffffffffffffffffffffffffff1916148061061257507f5b5e139f000000000000000000000000000000000000000000000000000000007bffffffffffffffffffffffffffffffffffffffffffffffffffffffff1916827bffffffffffffffffffffffffffffffffffffffffffffffffffffffff1916145b80610622575061062182611049565b5b9050919050565b6106316110b3565b80600a60006101000a81548160ff02191690831515021790555050565b60606000805461065d90612d64565b80601f016020809104026020016040519081016040528092919081815260200182805461068990612d64565b80156106d65780601f106106ab576101008083540402835291602001916106d6565b820191906000526020600020905b8154815290600101906020018083116106b957829003601f168201915b5050505050905090565b60006106eb82611131565b6004600083815260200190815260200160002060009054906101000a900473ffffffffffffffffffffffffffffffffffffffff169050919050565b600061073182610998565b90508073ffffffffffffffffffffffffffffffffffffffff168373ffffffffffffffffffffffffffffffffffffffff1614156107a2576040517f08c379a000000000000000000000000000000000000000000000000000000000815260040161079990612a3d565b60405180910390fd5b8073ffffffffffffffffffffffffffffffffffffffff166107c161117c565b73ffffffffffffffffffffffffffffffffffffffff1614806107f057506107ef816107ea61117c565b610f31565b5b61082f576040517f08c379a0000000000000000000000000000000000000000000000000000000008152600401610826906129bd565b60405180910390fd5b6108398383611184565b505050565b61084f61084961117c565b8261123d565b61088e576040517f08c379a000000000000000000000000000000000000000000000000000000000815260040161088590612a5d565b60405180910390fd5b6108998383836112d2565b505050565b60095481565b6108ac6110b3565b60006108b6610ce4565b9050600047905060008273ffffffffffffffffffffffffffffffffffffffff16826040516108e390612804565b60006040518083038185875af1925050503d8060008114610920576040519150601f19603f3d011682016040523d82523d6000602084013e610925565b606091505b5050905080610960576040517fd336a6cc00000000000000000000000000000000000000000000000000000000815260040160405180910390fd5b505050565b61098083838360405180602001604052806000815250610db6565b505050565b600a60009054906101000a900460ff1681565b6000806002600084815260200190815260200160002060009054906101000a900473ffffffffffffffffffffffffffffffffffffffff169050600073ffffffffffffffffffffffffffffffffffffffff168173ffffffffffffffffffffffffffffffffffffffff161415610a41576040517f08c379a0000000000000000000000000000000000000000000000000000000008152600401610a3890612a1d565b60405180910390fd5b80915050919050565b600a60009054906101000a900460ff1615610a91576040517fdf4ffc2800000000000000000000000000000000000000000000000000000000815260040160405180910390fd5b600181511015610acd576040517fa43f13e100000000000000000000000000000000000000000000000000000000815260040160405180910390fd5b610ad5610ce4565b73ffffffffffffffffffffffffffffffffffffffff163373ffffffffffffffffffffffffffffffffffffffff1614610b5f576000610b16600b548351611539565b905034811115610b5d57806040517fa4c90cde000000000000000000000000000000000000000000000000000000008152600401610b549190612a7d565b60405180910390fd5b505b6000600190505b81518111610c0057610b78600861154f565b600981905550610b88600861155d565b60008383600184610b999190612c7a565b81518110610baa57610ba9612ece565b5b6020026020010151604051602001610bc39291906127ca565b6040516020818303038152906040529050610be085600954611573565b610bec60095482611591565b508080610bf890612dc7565b915050610b66565b50505050565b610c0e6110b3565b80600b8190555050565b60008073ffffffffffffffffffffffffffffffffffffffff168273ffffffffffffffffffffffffffffffffffffffff161415610c89576040517f08c379a0000000000000000000000000000000000000000000000000000000008152600401610c809061297d565b60405180910390fd5b600360008373ffffffffffffffffffffffffffffffffffffffff1673ffffffffffffffffffffffffffffffffffffffff168152602001908152602001600020549050919050565b610cd86110b3565b610ce26000611605565b565b6000600760009054906101000a900473ffffffffffffffffffffffffffffffffffffffff16905090565b606060018054610d1d90612d64565b80601f0160208091040260200160405190810160405280929190818152602001828054610d4990612d64565b8015610d965780601f10610d6b57610100808354040283529160200191610d96565b820191906000526020600020905b815481529060010190602001808311610d7957829003601f168201915b5050505050905090565b610db2610dab61117c565b83836116cb565b5050565b610dc7610dc161117c565b8361123d565b610e06576040517f08c379a0000000000000000000000000000000000000000000000000000000008152600401610dfd90612a5d565b60405180910390fd5b610e1284848484611838565b50505050565b6060610e2382611131565b6000600660008481526020019081526020016000208054610e4390612d64565b80601f0160208091040260200160405190810160405280929190818152602001828054610e6f90612d64565b8015610ebc5780601f10610e9157610100808354040283529160200191610ebc565b820191906000526020600020905b815481529060010190602001808311610e9f57829003601f168201915b505050505090506000610ecd611894565b9050600081511415610ee3578192505050610f26565b600082511115610f18578082604051602001610f009291906127a6565b60405160208183030381529060405292505050610f26565b610f21846118ab565b925050505b919050565b600b5481565b6000600560008473ffffffffffffffffffffffffffffffffffffffff1673ffffffffffffffffffffffffffffffffffffffff16815260200190815260200160002060008373ffffffffffffffffffffffffffffffffffffffff1673ffffffffffffffffffffffffffffffffffffffff16815260200190815260200160002060009054906101000a900460ff16905092915050565b610fcd6110b3565b600073ffffffffffffffffffffffffffffffffffffffff168173ffffffffffffffffffffffffffffffffffffffff16141561103d576040517f08c379a0000000000000000000000000000000000000000000000000000000008152600401611034906128dd565b60405180910390fd5b61104681611605565b50565b60007f01ffc9a7000000000000000000000000000000000000000000000000000000007bffffffffffffffffffffffffffffffffffffffffffffffffffffffff1916827bffffffffffffffffffffffffffffffffffffffffffffffffffffffff1916149050919050565b6110bb61117c565b73ffffffffffffffffffffffffffffffffffffffff166110d9610ce4565b73ffffffffffffffffffffffffffffffffffffffff161461112f576040517f08c379a0000000000000000000000000000000000000000000000000000000008152600401611126906129fd565b60405180910390fd5b565b61113a81611913565b611179576040517f08c379a000000000000000000000000000000000000000000000000000000000815260040161117090612a1d565b60405180910390fd5b50565b600033905090565b816004600083815260200190815260200160002060006101000a81548173ffffffffffffffffffffffffffffffffffffffff021916908373ffffffffffffffffffffffffffffffffffffffff160217905550808273ffffffffffffffffffffffffffffffffffffffff166111f783610998565b73ffffffffffffffffffffffffffffffffffffffff167f8c5be1e5ebec7d5bd14f71427d1e84f3dd0314c0f7b2291e5b200ac8c7c3b92560405160405180910390a45050565b60008061124983610998565b90508073ffffffffffffffffffffffffffffffffffffffff168473ffffffffffffffffffffffffffffffffffffffff16148061128b575061128a8185610f31565b5b806112c957508373ffffffffffffffffffffffffffffffffffffffff166112b1846106e0565b73ffffffffffffffffffffffffffffffffffffffff16145b91505092915050565b8273ffffffffffffffffffffffffffffffffffffffff166112f282610998565b73ffffffffffffffffffffffffffffffffffffffff1614611348576040517f08c379a000000000000000000000000000000000000000000000000000000000815260040161133f906128fd565b60405180910390fd5b600073ffffffffffffffffffffffffffffffffffffffff168273ffffffffffffffffffffffffffffffffffffffff1614156113b8576040517f08c379a00000000000000000000000000000000000000000000000000000000081526004016113af9061293d565b60405180910390fd5b6113c383838361197f565b6113ce600082611184565b6001600360008573ffffffffffffffffffffffffffffffffffffffff1673ffffffffffffffffffffffffffffffffffffffff168152602001908152602001600020600082825461141e9190612c7a565b925050819055506001600360008473ffffffffffffffffffffffffffffffffffffffff1673ffffffffffffffffffffffffffffffffffffffff16815260200190815260200160002060008282546114759190612b99565b92505081905550816002600083815260200190815260200160002060006101000a81548173ffffffffffffffffffffffffffffffffffffffff021916908373ffffffffffffffffffffffffffffffffffffffff160217905550808273ffffffffffffffffffffffffffffffffffffffff168473ffffffffffffffffffffffffffffffffffffffff167fddf252ad1be2c89b69c2b068fc378daa952ba7f163c4a11628f55a4df523b3ef60405160405180910390a4611534838383611984565b505050565b600081836115479190612c20565b905092915050565b600081600001549050919050565b6001816000016000828254019250508190555050565b61158d828260405180602001604052806000815250611989565b5050565b61159a82611913565b6115d9576040517f08c379a00000000000000000000000000000000000000000000000000000000081526004016115d09061299d565b60405180910390fd5b80600660008481526020019081526020016000209080519060200190611600929190611ed9565b505050565b6000600760009054906101000a900473ffffffffffffffffffffffffffffffffffffffff16905081600760006101000a81548173ffffffffffffffffffffffffffffffffffffffff021916908373ffffffffffffffffffffffffffffffffffffffff1602179055508173ffffffffffffffffffffffffffffffffffffffff168173ffffffffffffffffffffffffffffffffffffffff167f8be0079c531659141344cd1fd0a4f28419497f9722a3daafe3b4186f6b6457e060405160405180910390a35050565b8173ffffffffffffffffffffffffffffffffffffffff168373ffffffffffffffffffffffffffffffffffffffff16141561173a576040517f08c379a00000000000000000000000000000000000000000000000000000000081526004016117319061295d565b60405180910390fd5b80600560008573ffffffffffffffffffffffffffffffffffffffff1673ffffffffffffffffffffffffffffffffffffffff16815260200190815260200160002060008473ffffffffffffffffffffffffffffffffffffffff1673ffffffffffffffffffffffffffffffffffffffff16815260200190815260200160002060006101000a81548160ff0219169083151502179055508173ffffffffffffffffffffffffffffffffffffffff168373ffffffffffffffffffffffffffffffffffffffff167f17307eab39ab6107e8899845ad3d59bd9653f200f220920489ca2b5937696c318360405161182b9190612880565b60405180910390a3505050565b6118438484846112d2565b61184f848484846119e4565b61188e576040517f08c379a0000000000000000000000000000000000000000000000000000000008152600401611885906128bd565b60405180910390fd5b50505050565b606060405180602001604052806000815250905090565b60606118b682611131565b60006118c0611894565b905060008151116118e0576040518060200160405280600081525061190b565b806118ea84611b7b565b6040516020016118fb9291906127a6565b6040516020818303038152906040525b915050919050565b60008073ffffffffffffffffffffffffffffffffffffffff166002600084815260200190815260200160002060009054906101000a900473ffffffffffffffffffffffffffffffffffffffff1673ffffffffffffffffffffffffffffffffffffffff1614159050919050565b505050565b505050565b6119938383611cdc565b6119a060008484846119e4565b6119df576040517f08c379a00000000000000000000000000000000000000000000000000000000081526004016119d6906128bd565b60405180910390fd5b505050565b6000611a058473ffffffffffffffffffffffffffffffffffffffff16611eb6565b15611b6e578373ffffffffffffffffffffffffffffffffffffffff1663150b7a02611a2e61117c565b8786866040518563ffffffff1660e01b8152600401611a509493929190612834565b602060405180830381600087803b158015611a6a57600080fd5b505af1925050508015611a9b57506040513d601f19601f82011682018060405250810190611a989190612429565b60015b611b1e573d8060008114611acb576040519150601f19603f3d011682016040523d82523d6000602084013e611ad0565b606091505b50600081511415611b16576040517f08c379a0000000000000000000000000000000000000000000000000000000008152600401611b0d906128bd565b60405180910390fd5b805181602001fd5b63150b7a0260e01b7bffffffffffffffffffffffffffffffffffffffffffffffffffffffff1916817bffffffffffffffffffffffffffffffffffffffffffffffffffffffff191614915050611b73565b600190505b949350505050565b60606000821415611bc3576040518060400160405280600181526020017f30000000000000000000000000000000000000000000000000000000000000008152509050611cd7565b600082905060005b60008214611bf5578080611bde90612dc7565b915050600a82611bee9190612bef565b9150611bcb565b60008167ffffffffffffffff811115611c1157611c10612efd565b5b6040519080825280601f01601f191660200182016040528015611c435781602001600182028036833780820191505090505b5090505b60008514611cd057600182611c5c9190612c7a565b9150600a85611c6b9190612e10565b6030611c779190612b99565b60f81b818381518110611c8d57611c8c612ece565b5b60200101907effffffffffffffffffffffffffffffffffffffffffffffffffffffffffffff1916908160001a905350600a85611cc99190612bef565b9450611c47565b8093505050505b919050565b600073ffffffffffffffffffffffffffffffffffffffff168273ffffffffffffffffffffffffffffffffffffffff161415611d4c576040517f08c379a0000000000000000000000000000000000000000000000000000000008152600401611d43906129dd565b60405180910390fd5b611d5581611913565b15611d95576040517f08c379a0000000000000000000000000000000000000000000000000000000008152600401611d8c9061291d565b60405180910390fd5b611da16000838361197f565b6001600360008473ffffffffffffffffffffffffffffffffffffffff1673ffffffffffffffffffffffffffffffffffffffff1681526020019081526020016000206000828254611df19190612b99565b92505081905550816002600083815260200190815260200160002060006101000a81548173ffffffffffffffffffffffffffffffffffffffff021916908373ffffffffffffffffffffffffffffffffffffffff160217905550808273ffffffffffffffffffffffffffffffffffffffff16600073ffffffffffffffffffffffffffffffffffffffff167fddf252ad1be2c89b69c2b068fc378daa952ba7f163c4a11628f55a4df523b3ef60405160405180910390a4611eb260008383611984565b5050565b6000808273ffffffffffffffffffffffffffffffffffffffff163b119050919050565b828054611ee590612d64565b90600052602060002090601f016020900481019282611f075760008555611f4e565b82601f10611f2057805160ff1916838001178555611f4e565b82800160010185558215611f4e579182015b82811115611f4d578251825591602001919060010190611f32565b5b509050611f5b9190611f5f565b5090565b5b80821115611f78576000816000905550600101611f60565b5090565b6000611f8f611f8a84612abd565b612a98565b90508083825260208201905082856020860282011115611fb257611fb1612f31565b5b60005b8581101561200057813567ffffffffffffffff811115611fd857611fd7612f2c565b5b808601611fe5898261213e565b85526020850194506020840193505050600181019050611fb5565b5050509392505050565b600061201d61201884612ae9565b612a98565b90508281526020810184848401111561203957612038612f36565b5b612044848285612d22565b509392505050565b600061205f61205a84612b1a565b612a98565b90508281526020810184848401111561207b5761207a612f36565b5b612086848285612d22565b509392505050565b60008135905061209d8161333f565b92915050565b600082601f8301126120b8576120b7612f2c565b5b81356120c8848260208601611f7c565b91505092915050565b6000813590506120e081613356565b92915050565b6000813590506120f58161336d565b92915050565b60008151905061210a8161336d565b92915050565b600082601f83011261212557612124612f2c565b5b813561213584826020860161200a565b91505092915050565b600082601f83011261215357612152612f2c565b5b813561216384826020860161204c565b91505092915050565b60008135905061217b81613384565b92915050565b60006020828403121561219757612196612f40565b5b60006121a58482850161208e565b91505092915050565b600080604083850312156121c5576121c4612f40565b5b60006121d38582860161208e565b92505060206121e48582860161208e565b9150509250929050565b60008060006060848603121561220757612206612f40565b5b60006122158682870161208e565b93505060206122268682870161208e565b92505060406122378682870161216c565b9150509250925092565b6000806000806080858703121561225b5761225a612f40565b5b60006122698782880161208e565b945050602061227a8782880161208e565b935050604061228b8782880161216c565b925050606085013567ffffffffffffffff8111156122ac576122ab612f3b565b5b6122b887828801612110565b91505092959194509250565b600080604083850312156122db576122da612f40565b5b60006122e98582860161208e565b92505060206122fa858286016120d1565b9150509250929050565b60008060006060848603121561231d5761231c612f40565b5b600061232b8682870161208e565b935050602084013567ffffffffffffffff81111561234c5761234b612f3b565b5b6123588682870161213e565b925050604084013567ffffffffffffffff81111561237957612378612f3b565b5b612385868287016120a3565b9150509250925092565b600080604083850312156123a6576123a5612f40565b5b60006123b48582860161208e565b92505060206123c58582860161216c565b9150509250929050565b6000602082840312156123e5576123e4612f40565b5b60006123f3848285016120d1565b91505092915050565b60006020828403121561241257612411612f40565b5b6000612420848285016120e6565b91505092915050565b60006020828403121561243f5761243e612f40565b5b600061244d848285016120fb565b91505092915050565b60006020828403121561246c5761246b612f40565b5b600061247a8482850161216c565b91505092915050565b61248c81612cae565b82525050565b61249b81612cc0565b82525050565b60006124ac82612b4b565b6124b68185612b61565b93506124c6818560208601612d31565b6124cf81612f45565b840191505092915050565b60006124e582612b56565b6124ef8185612b7d565b93506124ff818560208601612d31565b61250881612f45565b840191505092915050565b600061251e82612b56565b6125288185612b8e565b9350612538818560208601612d31565b80840191505092915050565b6000612551603283612b7d565b915061255c82612f56565b604082019050919050565b6000612574602683612b7d565b915061257f82612fa5565b604082019050919050565b6000612597602583612b7d565b91506125a282612ff4565b604082019050919050565b60006125ba601c83612b7d565b91506125c582613043565b602082019050919050565b60006125dd602483612b7d565b91506125e88261306c565b604082019050919050565b6000612600601983612b7d565b915061260b826130bb565b602082019050919050565b6000612623600783612b8e565b915061262e826130e4565b600782019050919050565b6000612646602983612b7d565b91506126518261310d565b604082019050919050565b6000612669602e83612b7d565b91506126748261315c565b604082019050919050565b600061268c603e83612b7d565b9150612697826131ab565b604082019050919050565b60006126af602083612b7d565b91506126ba826131fa565b602082019050919050565b60006126d2602083612b7d565b91506126dd82613223565b602082019050919050565b60006126f5601883612b7d565b91506127008261324c565b602082019050919050565b6000612718602183612b7d565b915061272382613275565b604082019050919050565b600061273b600083612b72565b9150612746826132c4565b600082019050919050565b600061275e602e83612b7d565b9150612769826132c7565b604082019050919050565b6000612781600183612b8e565b915061278c82613316565b600182019050919050565b6127a081612d18565b82525050565b60006127b28285612513565b91506127be8284612513565b91508190509392505050565b60006127d582612616565b91506127e18285612513565b91506127ec82612774565b91506127f88284612513565b91508190509392505050565b600061280f8261272e565b9150819050919050565b600060208201905061282e6000830184612483565b92915050565b60006080820190506128496000830187612483565b6128566020830186612483565b6128636040830185612797565b818103606083015261287581846124a1565b905095945050505050565b60006020820190506128956000830184612492565b92915050565b600060208201905081810360008301526128b581846124da565b905092915050565b600060208201905081810360008301526128d681612544565b9050919050565b600060208201905081810360008301526128f681612567565b9050919050565b600060208201905081810360008301526129168161258a565b9050919050565b60006020820190508181036000830152612936816125ad565b9050919050565b60006020820190508181036000830152612956816125d0565b9050919050565b60006020820190508181036000830152612976816125f3565b9050919050565b6000602082019050818103600083015261299681612639565b9050919050565b600060208201905081810360008301526129b68161265c565b9050919050565b600060208201905081810360008301526129d68161267f565b9050919050565b600060208201905081810360008301526129f6816126a2565b9050919050565b60006020820190508181036000830152612a16816126c5565b9050919050565b60006020820190508181036000830152612a36816126e8565b9050919050565b60006020820190508181036000830152612a568161270b565b9050919050565b60006020820190508181036000830152612a7681612751565b9050919050565b6000602082019050612a926000830184612797565b92915050565b6000612aa2612ab3565b9050612aae8282612d96565b919050565b6000604051905090565b600067ffffffffffffffff821115612ad857612ad7612efd565b5b602082029050602081019050919050565b600067ffffffffffffffff821115612b0457612b03612efd565b5b612b0d82612f45565b9050602081019050919050565b600067ffffffffffffffff821115612b3557612b34612efd565b5b612b3e82612f45565b9050602081019050919050565b600081519050919050565b600081519050919050565b600082825260208201905092915050565b600081905092915050565b600082825260208201905092915050565b600081905092915050565b6000612ba482612d18565b9150612baf83612d18565b9250827fffffffffffffffffffffffffffffffffffffffffffffffffffffffffffffffff03821115612be457612be3612e41565b5b828201905092915050565b6000612bfa82612d18565b9150612c0583612d18565b925082612c1557612c14612e70565b5b828204905092915050565b6000612c2b82612d18565b9150612c3683612d18565b9250817fffffffffffffffffffffffffffffffffffffffffffffffffffffffffffffffff0483118215151615612c6f57612c6e612e41565b5b828202905092915050565b6000612c8582612d18565b9150612c9083612d18565b925082821015612ca357612ca2612e41565b5b828203905092915050565b6000612cb982612cf8565b9050919050565b60008115159050919050565b60007fffffffff0000000000000000000000000000000000000000000000000000000082169050919050565b600073ffffffffffffffffffffffffffffffffffffffff82169050919050565b6000819050919050565b82818337600083830152505050565b60005b83811015612d4f578082015181840152602081019050612d34565b83811115612d5e576000848401525b50505050565b60006002820490506001821680612d7c57607f821691505b60208210811415612d9057612d8f612e9f565b5b50919050565b612d9f82612f45565b810181811067ffffffffffffffff82111715612dbe57612dbd612efd565b5b80604052505050565b6000612dd282612d18565b91507fffffffffffffffffffffffffffffffffffffffffffffffffffffffffffffffff821415612e0557612e04612e41565b5b600182019050919050565b6000612e1b82612d18565b9150612e2683612d18565b925082612e3657612e35612e70565b5b828206905092915050565b7f4e487b7100000000000000000000000000000000000000000000000000000000600052601160045260246000fd5b7f4e487b7100000000000000000000000000000000000000000000000000000000600052601260045260246000fd5b7f4e487b7100000000000000000000000000000000000000000000000000000000600052602260045260246000fd5b7f4e487b7100000000000000000000000000000000000000000000000000000000600052603260045260246000fd5b7f4e487b7100000000000000000000000000000000000000000000000000000000600052604160045260246000fd5b600080fd5b600080fd5b600080fd5b600080fd5b600080fd5b6000601f19601f8301169050919050565b7f4552433732313a207472616e7366657220746f206e6f6e20455243373231526560008201527f63656976657220696d706c656d656e7465720000000000000000000000000000602082015250565b7f4f776e61626c653a206e6577206f776e657220697320746865207a65726f206160008201527f6464726573730000000000000000000000000000000000000000000000000000602082015250565b7f4552433732313a207472616e736665722066726f6d20696e636f72726563742060008201527f6f776e6572000000000000000000000000000000000000000000000000000000602082015250565b7f4552433732313a20746f6b656e20616c7265616479206d696e74656400000000600082015250565b7f4552433732313a207472616e7366657220746f20746865207a65726f2061646460008201527f7265737300000000000000000000000000000000000000000000000000000000602082015250565b7f4552433732313a20617070726f766520746f2063616c6c657200000000000000600082015250565b7f697066733a2f2f00000000000000000000000000000000000000000000000000600082015250565b7f4552433732313a2061646472657373207a65726f206973206e6f74206120766160008201527f6c6964206f776e65720000000000000000000000000000000000000000000000602082015250565b7f45524337323155524953746f726167653a2055524920736574206f66206e6f6e60008201527f6578697374656e7420746f6b656e000000000000000000000000000000000000602082015250565b7f4552433732313a20617070726f76652063616c6c6572206973206e6f7420746f60008201527f6b656e206f776e6572206e6f7220617070726f76656420666f7220616c6c0000602082015250565b7f4552433732313a206d696e7420746f20746865207a65726f2061646472657373600082015250565b7f4f776e61626c653a2063616c6c6572206973206e6f7420746865206f776e6572600082015250565b7f4552433732313a20696e76616c696420746f6b656e2049440000000000000000600082015250565b7f4552433732313a20617070726f76616c20746f2063757272656e74206f776e6560008201527f7200000000000000000000000000000000000000000000000000000000000000602082015250565b50565b7f4552433732313a2063616c6c6572206973206e6f7420746f6b656e206f776e6560008201527f72206e6f7220617070726f766564000000000000000000000000000000000000602082015250565b7f2f00000000000000000000000000000000000000000000000000000000000000600082015250565b61334881612cae565b811461335357600080fd5b50565b61335f81612cc0565b811461336a57600080fd5b50565b61337681612ccc565b811461338157600080fd5b50565b61338d81612d18565b811461339857600080fd5b5056fea2646970667358221220583a46efbe50add80ba522d32073b3e14bbcd20b2a9a6f5cd978c49c7f71684164736f6c63430008070033",
  "linkReferences": {},
  "deployedLinkReferences": {}
}